{
  "_format": "hh-sol-artifact-1",
  "contractName": "BlackjackGame",
  "sourceName": "contracts/BlackjackGame.sol",
  "abi": [
    {
      "inputs": [],
      "stateMutability": "payable",
      "type": "constructor"
    },
    {
      "anonymous": false,
      "inputs": [
        {
          "indexed": false,
          "internalType": "string",
          "name": "text",
          "type": "string"
        }
      ],
      "name": "Chat",
      "type": "event"
    },
    {
      "inputs": [],
      "name": "_game",
      "outputs": [
        {
          "internalType": "address",
          "name": "player",
          "type": "address"
        },
        {
          "internalType": "enum BlackjackGame.GameStatus",
          "name": "status",
          "type": "uint8"
        },
        {
          "internalType": "uint256",
          "name": "bet",
          "type": "uint256"
        }
      ],
      "stateMutability": "view",
      "type": "function"
    },
    {
      "inputs": [],
      "name": "apostar",
      "outputs": [],
      "stateMutability": "payable",
      "type": "function"
    },
    {
      "inputs": [],
      "name": "casinoWallet",
      "outputs": [
        {
          "internalType": "address payable",
          "name": "",
          "type": "address"
        }
      ],
      "stateMutability": "view",
      "type": "function"
    },
    {
      "inputs": [],
      "name": "doblar",
      "outputs": [],
      "stateMutability": "payable",
      "type": "function"
    },
    {
      "inputs": [],
      "name": "gameStatus",
      "outputs": [
        {
          "internalType": "string",
          "name": "",
          "type": "string"
        }
      ],
      "stateMutability": "view",
      "type": "function"
    },
    {
      "inputs": [
        {
          "components": [
            {
              "internalType": "uint256",
              "name": "suit",
              "type": "uint256"
            },
            {
              "internalType": "uint256",
              "name": "number",
              "type": "uint256"
            }
          ],
          "internalType": "struct BlackjackGame.Card[]",
          "name": "cards",
          "type": "tuple[]"
        }
      ],
      "name": "getPuntaje",
      "outputs": [
        {
          "internalType": "uint256",
          "name": "",
          "type": "uint256"
        }
      ],
      "stateMutability": "pure",
      "type": "function"
    },
    {
      "inputs": [],
      "name": "getStatus",
      "outputs": [
        {
          "components": [
            {
              "internalType": "address",
              "name": "player",
              "type": "address"
            },
            {
              "internalType": "enum BlackjackGame.GameStatus",
              "name": "status",
              "type": "uint8"
            },
            {
              "internalType": "uint256",
              "name": "bet",
              "type": "uint256"
            },
            {
              "components": [
                {
                  "internalType": "uint256",
                  "name": "suit",
                  "type": "uint256"
                },
                {
                  "internalType": "uint256",
                  "name": "number",
                  "type": "uint256"
                }
              ],
              "internalType": "struct BlackjackGame.Card[]",
              "name": "dealerCards",
              "type": "tuple[]"
            },
            {
              "components": [
                {
                  "internalType": "uint256",
                  "name": "suit",
                  "type": "uint256"
                },
                {
                  "internalType": "uint256",
                  "name": "number",
                  "type": "uint256"
                }
              ],
              "internalType": "struct BlackjackGame.Card[]",
              "name": "playerCards",
              "type": "tuple[]"
            }
          ],
          "internalType": "struct BlackjackGame.Game",
          "name": "",
          "type": "tuple"
        }
      ],
      "stateMutability": "view",
      "type": "function"
    },
    {
      "inputs": [],
      "name": "iniciar",
      "outputs": [],
      "stateMutability": "payable",
      "type": "function"
    },
    {
      "inputs": [],
      "name": "pedir",
      "outputs": [],
      "stateMutability": "nonpayable",
      "type": "function"
    },
    {
      "inputs": [],
      "name": "playerWallet",
      "outputs": [
        {
          "internalType": "address payable",
          "name": "",
          "type": "address"
        }
      ],
      "stateMutability": "view",
      "type": "function"
    },
    {
      "inputs": [],
      "name": "quedarse",
      "outputs": [],
      "stateMutability": "nonpayable",
      "type": "function"
    },
    {
      "inputs": [],
      "name": "rendirse",
      "outputs": [],
      "stateMutability": "nonpayable",
      "type": "function"
    },
    {
      "inputs": [],
      "name": "repartir",
      "outputs": [],
      "stateMutability": "payable",
      "type": "function"
    },
    {
      "inputs": [
        {
          "internalType": "address",
          "name": "account",
          "type": "address"
        }
      ],
      "name": "toString",
      "outputs": [
        {
          "internalType": "string",
          "name": "",
          "type": "string"
        }
      ],
      "stateMutability": "pure",
      "type": "function"
    },
    {
      "inputs": [
        {
          "internalType": "uint256",
          "name": "value",
          "type": "uint256"
        }
      ],
      "name": "toString",
      "outputs": [
        {
          "internalType": "string",
          "name": "",
          "type": "string"
        }
      ],
      "stateMutability": "pure",
      "type": "function"
    },
    {
      "inputs": [
        {
          "internalType": "bytes",
          "name": "data",
          "type": "bytes"
        }
      ],
      "name": "toString",
      "outputs": [
        {
          "internalType": "string",
          "name": "",
          "type": "string"
        }
      ],
      "stateMutability": "pure",
      "type": "function"
    },
    {
      "inputs": [
        {
          "internalType": "bool",
          "name": "value",
          "type": "bool"
        }
      ],
      "name": "toString",
      "outputs": [
        {
          "internalType": "string",
          "name": "",
          "type": "string"
        }
      ],
      "stateMutability": "pure",
      "type": "function"
    },
    {
      "inputs": [
        {
          "internalType": "bytes32",
          "name": "value",
          "type": "bytes32"
        }
      ],
      "name": "toString",
      "outputs": [
        {
          "internalType": "string",
          "name": "",
          "type": "string"
        }
      ],
      "stateMutability": "pure",
      "type": "function"
    }
  ],
  "bytecode": "0x60806040526000805533600660006101000a81548173ffffffffffffffffffffffffffffffffffffffff021916908373ffffffffffffffffffffffffffffffffffffffff1602179055506000600160000160146101000a81548160ff021916908360058111156200007557620000746200008a565b5b021790555060006001800181905550620000b9565b7f4e487b7100000000000000000000000000000000000000000000000000000000600052602160045260246000fd5b61410a80620000c96000396000f3fe6080604052600436106101095760003560e01c806371dce7da11610095578063adf1484111610064578063adf148411461031d578063b11a19e81461035a578063b9bb747714610397578063c1811269146103ae578063c92b0a85146103b857610109565b806371dce7da146102a1578063722fed7e146102de578063777cccfc1461030957806377f079811461031357610109565b806356ca623e116100dc57806356ca623e146101a85780635bacfb69146101e55780635f16c046146101fc5780636900a3ae1461022757806371aad10d1461026457610109565b80631c8b7fe51461010e5780634a97e0e81461013b5780634dfb304c146101665780634e69d5601461017d575b600080fd5b34801561011a57600080fd5b506101236103c2565b60405161013293929190612a65565b60405180910390f35b34801561014757600080fd5b50610150610407565b60405161015d9190612abd565b60405180910390f35b34801561017257600080fd5b5061017b61042d565b005b34801561018957600080fd5b50610192610540565b60405161019f9190612c60565b60405180910390f35b3480156101b457600080fd5b506101cf60048036038101906101ca9190612cc2565b6106db565b6040516101dc9190612d7f565b60405180910390f35b3480156101f157600080fd5b506101fa61070c565b005b34801561020857600080fd5b5061021161088c565b60405161021e9190612abd565b60405180910390f35b34801561023357600080fd5b5061024e60048036038101906102499190612dcd565b6108b2565b60405161025b9190612d7f565b60405180910390f35b34801561027057600080fd5b5061028b60048036038101906102869190612f2f565b6108e3565b6040516102989190612d7f565b60405180910390f35b3480156102ad57600080fd5b506102c860048036038101906102c39190612fb0565b610bdd565b6040516102d59190612d7f565b60405180910390f35b3480156102ea57600080fd5b506102f3610c0e565b6040516103009190612d7f565b60405180910390f35b610311610c30565b005b61031b610e93565b005b34801561032957600080fd5b50610344600480360381019061033f91906130fa565b61102b565b6040516103519190613143565b60405180910390f35b34801561036657600080fd5b50610381600480360381019061037c9190613194565b61118c565b60405161038e9190612d7f565b60405180910390f35b3480156103a357600080fd5b506103ac6111bd565b005b6103b6611331565b005b6103c061152e565b005b60018060000160009054906101000a900473ffffffffffffffffffffffffffffffffffffffff16908060000160149054906101000a900460ff16908060010154905083565b600660009054906101000a900473ffffffffffffffffffffffffffffffffffffffff1681565b600560009054906101000a900473ffffffffffffffffffffffffffffffffffffffff1673ffffffffffffffffffffffffffffffffffffffff163373ffffffffffffffffffffffffffffffffffffffff16146104bd576040517f08c379a00000000000000000000000000000000000000000000000000000000081526004016104b49061320d565b60405180910390fd5b600360058111156104d1576104d06129d5565b5b600160000160149054906101000a900460ff1660058111156104f6576104f56129d5565b5b1461050057600080fd5b61050861167c565b6003600160000160146101000a81548160ff02191690836005811115610531576105306129d5565b5b021790555061053e61172e565b565b610548612923565b60016040518060a00160405290816000820160009054906101000a900473ffffffffffffffffffffffffffffffffffffffff1673ffffffffffffffffffffffffffffffffffffffff1673ffffffffffffffffffffffffffffffffffffffff1681526020016000820160149054906101000a900460ff1660058111156105d0576105cf6129d5565b5b60058111156105e2576105e16129d5565b5b81526020016001820154815260200160028201805480602002602001604051908101604052809291908181526020016000905b8282101561065b57838290600052602060002090600202016040518060400160405290816000820154815260200160018201548152505081526020019060010190610615565b50505050815260200160038201805480602002602001604051908101604052809291908181526020016000905b828210156106ce57838290600052602060002090600202016040518060400160405290816000820154815260200160018201548152505081526020019060010190610688565b5050505081525050905090565b6060610705826040516020016106f19190613275565b6040516020818303038152906040526108e3565b9050919050565b600560009054906101000a900473ffffffffffffffffffffffffffffffffffffffff1673ffffffffffffffffffffffffffffffffffffffff163373ffffffffffffffffffffffffffffffffffffffff161461079c576040517f08c379a00000000000000000000000000000000000000000000000000000000081526004016107939061320d565b60405180910390fd5b600360058111156107b0576107af6129d5565b5b600160000160149054906101000a900460ff1660058111156107d5576107d46129d5565b5b146107df57600080fd5b6000600260018001546107f291906132ee565b90506107fd81611977565b7f21516fc4756d2c12dc37899fed74ed9070ec26908569d579288da5408ef35df261082782611b06565b60405160200161083791906133f3565b6040516020818303038152906040526040516108539190612d7f565b60405180910390a16005600160000160146101000a81548160ff02191690836005811115610884576108836129d5565b5b021790555050565b600560009054906101000a900473ffffffffffffffffffffffffffffffffffffffff1681565b60606108dc826040516020016108c89190613445565b6040516020818303038152906040526108e3565b9050919050565b606060006040518060400160405280601081526020017f3031323334353637383941424344454600000000000000000000000000000000815250905060006002845161092f9190613460565b600261093b91906134ba565b67ffffffffffffffff81111561095457610953612e04565b5b6040519080825280601f01601f1916602001820160405280156109865781602001600182028036833780820191505090505b5090507f3000000000000000000000000000000000000000000000000000000000000000816000815181106109be576109bd6134ee565b5b60200101907effffffffffffffffffffffffffffffffffffffffffffffffffffffffffffff1916908160001a9053507f780000000000000000000000000000000000000000000000000000000000000081600181518110610a2257610a216134ee565b5b60200101907effffffffffffffffffffffffffffffffffffffffffffffffffffffffffffff1916908160001a90535060005b8451811015610bd257826004868381518110610a7357610a726134ee565b5b602001015160f81c60f81b7effffffffffffffffffffffffffffffffffffffffffffffffffffffffffffff1916901c60f81c60ff1681518110610ab957610ab86134ee565b5b602001015160f81c60f81b82600283610ad29190613460565b6002610ade91906134ba565b81518110610aef57610aee6134ee565b5b60200101907effffffffffffffffffffffffffffffffffffffffffffffffffffffffffffff1916908160001a90535082600f60f81b868381518110610b3757610b366134ee565b5b602001015160f81c60f81b1660f81c60ff1681518110610b5a57610b596134ee565b5b602001015160f81c60f81b82600283610b739190613460565b6003610b7f91906134ba565b81518110610b9057610b8f6134ee565b5b60200101907effffffffffffffffffffffffffffffffffffffffffffffffffffffffffffff1916908160001a9053508080610bca9061351d565b915050610a54565b508092505050919050565b6060610c0782604051602001610bf391906135ad565b6040516020818303038152906040526108e3565b9050919050565b6060610c2b600160000160149054906101000a900460ff16611c66565b905090565b600560009054906101000a900473ffffffffffffffffffffffffffffffffffffffff1673ffffffffffffffffffffffffffffffffffffffff163373ffffffffffffffffffffffffffffffffffffffff1614610cc0576040517f08c379a0000000000000000000000000000000000000000000000000000000008152600401610cb79061320d565b60405180910390fd5b60036005811115610cd457610cd36129d5565b5b600160000160149054906101000a900460ff166005811115610cf957610cf86129d5565b5b148015610d0e57506002600160030180549050145b610d4d576040517f08c379a0000000000000000000000000000000000000000000000000000000008152600401610d449061363a565b60405180910390fd5b600060026001800154610d609190613460565b905034600180015414610d7660018001546108b2565b604051602001610d8691906136cc565b60405160208183030381529060405290610dd6576040517f08c379a0000000000000000000000000000000000000000000000000000000008152600401610dcd9190612d7f565b60405180910390fd5b50806001800181905550610de8611eb2565b7f21516fc4756d2c12dc37899fed74ed9070ec26908569d579288da5408ef35df2610e166001800154611b06565b604051602001610e269190613714565b604051602081830303815290604052604051610e429190612d7f565b60405180910390a1610e5261167c565b6004600160000160146101000a81548160ff02191690836005811115610e7b57610e7a6129d5565b5b0217905550610e8861172e565b610e90612046565b50565b600560009054906101000a900473ffffffffffffffffffffffffffffffffffffffff1673ffffffffffffffffffffffffffffffffffffffff163373ffffffffffffffffffffffffffffffffffffffff1614610f23576040517f08c379a0000000000000000000000000000000000000000000000000000000008152600401610f1a9061320d565b60405180910390fd5b60026005811115610f3757610f366129d5565b5b600160000160149054906101000a900460ff166005811115610f5c57610f5b6129d5565b5b14610f6657600080fd5b34600180015414610f7a60018001546108b2565b604051602001610f8a919061376f565b60405160208183030381529060405290610fda576040517f08c379a0000000000000000000000000000000000000000000000000000000008152600401610fd19190612d7f565b60405180910390fd5b50610fe361167c565b610feb61167c565b610ff361244c565b6003600160000160146101000a81548160ff0219169083600581111561101c5761101b6129d5565b5b021790555061102961172e565b565b6000806000905060005b8351811015611086576001848281518110611053576110526134ee565b5b6020026020010151602001510361107357818061106f9061351d565b9250505b808061107e9061351d565b915050611035565b506000805b84518110156111495760018582815181106110a9576110a86134ee565b5b602002602001015160200151036110ce57600b826110c791906134ba565b9150611136565b600a8582815181106110e3576110e26134ee565b5b6020026020010151602001511061110857600a8261110191906134ba565b9150611135565b84818151811061111b5761111a6134ee565b5b6020026020010151602001518261113291906134ba565b91505b5b80806111419061351d565b91505061108b565b5060005b8281101561118157601582111561116e57600a8261116b9190613795565b91505b80806111799061351d565b91505061114d565b508092505050919050565b60606111b6826040516020016111a291906137ea565b6040516020818303038152906040526108e3565b9050919050565b600560009054906101000a900473ffffffffffffffffffffffffffffffffffffffff1673ffffffffffffffffffffffffffffffffffffffff163373ffffffffffffffffffffffffffffffffffffffff161461124d576040517f08c379a00000000000000000000000000000000000000000000000000000000081526004016112449061320d565b60405180910390fd5b60036005811115611261576112606129d5565b5b600160000160149054906101000a900460ff166005811115611286576112856129d5565b5b1461129057600080fd5b7f21516fc4756d2c12dc37899fed74ed9070ec26908569d579288da5408ef35df26040516020016112c090613877565b6040516020818303038152906040526040516112dc9190612d7f565b60405180910390a1600460058111156112f8576112f76129d5565b5b600160000160149054906101000a900460ff16600581111561131d5761131c6129d5565b5b505061132761172e565b61132f612046565b565b600560009054906101000a900473ffffffffffffffffffffffffffffffffffffffff1673ffffffffffffffffffffffffffffffffffffffff163373ffffffffffffffffffffffffffffffffffffffff16146113c1576040517f08c379a00000000000000000000000000000000000000000000000000000000081526004016113b89061320d565b60405180910390fd5b600160058111156113d5576113d46129d5565b5b600160000160149054906101000a900460ff1660058111156113fa576113f96129d5565b5b1461143a576040517f08c379a0000000000000000000000000000000000000000000000000000000008152600401611431906138d8565b60405180910390fd5b6000349050600060648261144e91906138f8565b1461148e576040517f08c379a000000000000000000000000000000000000000000000000000000000815260040161148590613975565b60405180910390fd5b611496611eb2565b8060018001819055506002600160000160146101000a81548160ff021916908360058111156114c8576114c76129d5565b5b02179055507f21516fc4756d2c12dc37899fed74ed9070ec26908569d579288da5408ef35df26114f782611b06565b60405160200161150791906139e1565b6040516020818303038152906040526040516115239190612d7f565b60405180910390a150565b60006005811115611542576115416129d5565b5b600160000160149054906101000a900460ff166005811115611567576115666129d5565b5b1461157157600080fd5b33600560006101000a81548173ffffffffffffffffffffffffffffffffffffffff021916908373ffffffffffffffffffffffffffffffffffffffff160217905550600560009054906101000a900473ffffffffffffffffffffffffffffffffffffffff16600160000160006101000a81548173ffffffffffffffffffffffffffffffffffffffff021916908373ffffffffffffffffffffffffffffffffffffffff16021790555060018060000160146101000a81548160ff021916908360058111156116405761163f6129d5565b5b02179055507f21516fc4756d2c12dc37899fed74ed9070ec26908569d579288da5408ef35df260405161167290613a62565b60405180910390a1565b60006116866124fe565b90506001600301819080600181540180825580915050600190039060005260206000209060020201600090919091909150600082015181600001556020820151816001015550507f21516fc4756d2c12dc37899fed74ed9070ec26908569d579288da5408ef35df26116f782612547565b6040516020016117079190613ace565b6040516020818303038152906040526040516117239190612d7f565b60405180910390a150565b60156117386127cc565b14801561174d57506002600160030180549050145b15611804577f21516fc4756d2c12dc37899fed74ed9070ec26908569d579288da5408ef35df260405160200161178290613b75565b60405160208183030381529060405260405161179e9190612d7f565b60405180910390a16005600160000160146101000a81548160ff021916908360058111156117cf576117ce6129d5565b5b021790555060006002600360018001546117e99190613460565b6117f391906132ee565b90506117fe81611977565b50611975565b601561180e61284a565b11156118c6577f21516fc4756d2c12dc37899fed74ed9070ec26908569d579288da5408ef35df260405160200161184490613bfc565b6040516020818303038152906040526040516118609190612d7f565b60405180910390a16005600160000160146101000a81548160ff02191690836005811115611891576118906129d5565b5b021790555060006002600360018001546118ab9190613460565b6118b591906132ee565b90506118c081611977565b50611975565b60156118d06127cc565b11156119745760006118e06127cc565b90507f21516fc4756d2c12dc37899fed74ed9070ec26908569d579288da5408ef35df261190c82611b06565b60405160200161191c9190613c5d565b6040516020818303038152906040526040516119389190612d7f565b60405180910390a16005600160000160146101000a81548160ff02191690836005811115611969576119686129d5565b5b021790555050611975565b5b565b600061198282611b06565b905060006119b1600560009054906101000a900473ffffffffffffffffffffffffffffffffffffffff166106db565b9050600080600560009054906101000a900473ffffffffffffffffffffffffffffffffffffffff1673ffffffffffffffffffffffffffffffffffffffff16856040516119fc90613cc3565b60006040518083038185875af1925050503d8060008114611a39576040519150601f19603f3d011682016040523d82523d6000602084013e611a3e565b606091505b50915091508115611aa6577f21516fc4756d2c12dc37899fed74ed9070ec26908569d579288da5408ef35df28484604051602001611a7d929190613d24565b604051602081830303815290604052604051611a999190612d7f565b60405180910390a1611aff565b7f21516fc4756d2c12dc37899fed74ed9070ec26908569d579288da5408ef35df28484604051602001611ada929190613d8c565b604051602081830303815290604052604051611af69190612d7f565b60405180910390a15b5050505050565b606060008203611b4d576040518060400160405280600181526020017f30000000000000000000000000000000000000000000000000000000000000008152509050611c61565b600082905060005b60008214611b7f578080611b689061351d565b915050600a82611b7891906132ee565b9150611b55565b60008167ffffffffffffffff811115611b9b57611b9a612e04565b5b6040519080825280601f01601f191660200182016040528015611bcd5781602001600182028036833780820191505090505b5090505b60008514611c5a57600182611be69190613795565b9150600a85611bf591906138f8565b6030611c0191906134ba565b60f81b818381518110611c1757611c166134ee565b5b60200101907effffffffffffffffffffffffffffffffffffffffffffffffffffffffffffff1916908160001a905350600a85611c5391906132ee565b9450611bd1565b8093505050505b919050565b606060006005811115611c7c57611c7b6129d5565b5b826005811115611c8f57611c8e6129d5565b5b03611cd1576040518060400160405280600581526020017f4e7565766f0000000000000000000000000000000000000000000000000000008152509050611ead565b60016005811115611ce557611ce46129d5565b5b826005811115611cf857611cf76129d5565b5b03611d3a576040518060400160405280601181526020017f4573706572616e646f20417075657374610000000000000000000000000000008152509050611ead565b60026005811115611d4e57611d4d6129d5565b5b826005811115611d6157611d606129d5565b5b03611da3576040518060400160405280601281526020017f4573706572616e646f20526570617274697200000000000000000000000000008152509050611ead565b60036005811115611db757611db66129d5565b5b826005811115611dca57611dc96129d5565b5b03611e0c576040518060400160405280601181526020017f4573706572616e646f204a756761646f720000000000000000000000000000008152509050611ead565b600580811115611e1f57611e1e6129d5565b5b826005811115611e3257611e316129d5565b5b03611e74576040518060400160405280600a81526020017f46696e616c697a61646f000000000000000000000000000000000000000000008152509050611ead565b6040518060400160405280600581526020017f4572726f7200000000000000000000000000000000000000000000000000000081525090505b919050565b60003490506000611ec282611b06565b90506000611ef1600560009054906101000a900473ffffffffffffffffffffffffffffffffffffffff166106db565b9050600080600660009054906101000a900473ffffffffffffffffffffffffffffffffffffffff1673ffffffffffffffffffffffffffffffffffffffff1685604051611f3c90613cc3565b60006040518083038185875af1925050503d8060008114611f79576040519150601f19603f3d011682016040523d82523d6000602084013e611f7e565b606091505b50915091508115611fe6577f21516fc4756d2c12dc37899fed74ed9070ec26908569d579288da5408ef35df28484604051602001611fbd929190613e1a565b604051602081830303815290604052604051611fd99190612d7f565b60405180910390a161203f565b7f21516fc4756d2c12dc37899fed74ed9070ec26908569d579288da5408ef35df2848460405160200161201a929190613e82565b6040516020818303038152906040526040516120369190612d7f565b60405180910390a15b5050505050565b600580811115612059576120586129d5565b5b600160000160149054906101000a900460ff16600581111561207e5761207d6129d5565b5b031561244a575b601161208f61284a565b10156120a25761209d61244c565b612085565b60156120ac61284a565b1115612164577f21516fc4756d2c12dc37899fed74ed9070ec26908569d579288da5408ef35df26040516020016120e290613bfc565b6040516020818303038152906040526040516120fe9190612d7f565b60405180910390a16005600160000160146101000a81548160ff0219169083600581111561212f5761212e6129d5565b5b021790555060006002600360018001546121499190613460565b61215391906132ee565b905061215e81611977565b5061244a565b7f21516fc4756d2c12dc37899fed74ed9070ec26908569d579288da5408ef35df261219561219061284a565b611b06565b6040516020016121a59190613eea565b6040516020818303038152906040526040516121c19190612d7f565b60405180910390a17f21516fc4756d2c12dc37899fed74ed9070ec26908569d579288da5408ef35df26121fa6121f56127cc565b611b06565b60405160200161220a9190613f36565b6040516020818303038152906040526040516122269190612d7f565b60405180910390a16122366127cc565b61223e61284a565b036122dd577f21516fc4756d2c12dc37899fed74ed9070ec26908569d579288da5408ef35df260405160200161227390613fce565b60405160208183030381529060405260405161228f9190612d7f565b60405180910390a16005600160000160146101000a81548160ff021916908360058111156122c0576122bf6129d5565b5b02179055506000600180015490506122d781611977565b5061244a565b6122e56127cc565b6122ed61284a565b11156123915760006122fd6127cc565b90507f21516fc4756d2c12dc37899fed74ed9070ec26908569d579288da5408ef35df261232982611b06565b6040516020016123399190613c5d565b6040516020818303038152906040526040516123559190612d7f565b60405180910390a16005600160000160146101000a81548160ff02191690836005811115612386576123856129d5565b5b02179055505061244a565b6123996127cc565b6123a161284a565b1015612449577f21516fc4756d2c12dc37899fed74ed9070ec26908569d579288da5408ef35df26040516020016123d790613bfc565b6040516020818303038152906040526040516123f39190612d7f565b60405180910390a16005600160000160146101000a81548160ff02191690836005811115612424576124236129d5565b5b021790555060006002600180015461243c9190613460565b905061244781611977565b505b5b565b60006124566124fe565b90506001600201819080600181540180825580915050600190039060005260206000209060020201600090919091909150600082015181600001556020820151816001015550507f21516fc4756d2c12dc37899fed74ed9070ec26908569d579288da5408ef35df26124c782612547565b6040516020016124d79190614009565b6040516020818303038152906040526040516124f39190612d7f565b60405180910390a150565b61250661297a565b61250e61297a565b61251860046128c8565b816000018181525050600161252d600d6128c8565b61253791906134ba565b8160200181815250508091505090565b606080600183602001510361258f576040518060400160405280600281526020017f417300000000000000000000000000000000000000000000000000000000000081525090505b600183602001511180156125a75750600b8360200151105b156125bc576125b98360200151611b06565b90505b600b836020015103612601576040518060400160405280600181526020017f4a0000000000000000000000000000000000000000000000000000000000000081525090505b600c836020015103612646576040518060400160405280600181526020017f510000000000000000000000000000000000000000000000000000000000000081525090505b600d83602001510361268b576040518060400160405280600181526020017f4b0000000000000000000000000000000000000000000000000000000000000081525090505b606060008460000151036126d2576040518060400160405280600481526020017f506963610000000000000000000000000000000000000000000000000000000081525090505b6001846000015103612717576040518060400160405280600781526020017f436f72617a6f6e0000000000000000000000000000000000000000000000000081525090505b600284600001510361275c576040518060400160405280600681526020017f547265626f6c000000000000000000000000000000000000000000000000000081525090505b60038460000151036127a1576040518060400160405280600881526020017f4469616d616e746500000000000000000000000000000000000000000000000081525090505b81816040516020016127b4929190614064565b60405160208183030381529060405292505050919050565b60006128456001600301805480602002602001604051908101604052809291908181526020016000905b8282101561283c578382906000526020600020906002020160405180604001604052908160008201548152602001600182015481525050815260200190600101906127f6565b5050505061102b565b905090565b60006128c36001600201805480602002602001604051908101604052809291908181526020016000905b828210156128ba57838290600052602060002090600202016040518060400160405290816000820154815260200160018201548152505081526020019060010190612874565b5050505061102b565b905090565b60008060008154809291906128dc9061351d565b91905055508142336000546040516020016128f993929190614097565b6040516020818303038152906040528051906020012060001c61291c91906138f8565b9050919050565b6040518060a00160405280600073ffffffffffffffffffffffffffffffffffffffff1681526020016000600581111561295f5761295e6129d5565b5b81526020016000815260200160608152602001606081525090565b604051806040016040528060008152602001600081525090565b600073ffffffffffffffffffffffffffffffffffffffff82169050919050565b60006129bf82612994565b9050919050565b6129cf816129b4565b82525050565b7f4e487b7100000000000000000000000000000000000000000000000000000000600052602160045260246000fd5b60068110612a1557612a146129d5565b5b50565b6000819050612a2682612a04565b919050565b6000612a3682612a18565b9050919050565b612a4681612a2b565b82525050565b6000819050919050565b612a5f81612a4c565b82525050565b6000606082019050612a7a60008301866129c6565b612a876020830185612a3d565b612a946040830184612a56565b949350505050565b6000612aa782612994565b9050919050565b612ab781612a9c565b82525050565b6000602082019050612ad26000830184612aae565b92915050565b612ae1816129b4565b82525050565b612af081612a2b565b82525050565b612aff81612a4c565b82525050565b600081519050919050565b600082825260208201905092915050565b6000819050602082019050919050565b604082016000820151612b476000850182612af6565b506020820151612b5a6020850182612af6565b50505050565b6000612b6c8383612b31565b60408301905092915050565b6000602082019050919050565b6000612b9082612b05565b612b9a8185612b10565b9350612ba583612b21565b8060005b83811015612bd6578151612bbd8882612b60565b9750612bc883612b78565b925050600181019050612ba9565b5085935050505092915050565b600060a083016000830151612bfb6000860182612ad8565b506020830151612c0e6020860182612ae7565b506040830151612c216040860182612af6565b5060608301518482036060860152612c398282612b85565b91505060808301518482036080860152612c538282612b85565b9150508091505092915050565b60006020820190508181036000830152612c7a8184612be3565b905092915050565b6000604051905090565b600080fd5b600080fd5b612c9f816129b4565b8114612caa57600080fd5b50565b600081359050612cbc81612c96565b92915050565b600060208284031215612cd857612cd7612c8c565b5b6000612ce684828501612cad565b91505092915050565b600081519050919050565b600082825260208201905092915050565b60005b83811015612d29578082015181840152602081019050612d0e565b60008484015250505050565b6000601f19601f8301169050919050565b6000612d5182612cef565b612d5b8185612cfa565b9350612d6b818560208601612d0b565b612d7481612d35565b840191505092915050565b60006020820190508181036000830152612d998184612d46565b905092915050565b612daa81612a4c565b8114612db557600080fd5b50565b600081359050612dc781612da1565b92915050565b600060208284031215612de357612de2612c8c565b5b6000612df184828501612db8565b91505092915050565b600080fd5b600080fd5b7f4e487b7100000000000000000000000000000000000000000000000000000000600052604160045260246000fd5b612e3c82612d35565b810181811067ffffffffffffffff82111715612e5b57612e5a612e04565b5b80604052505050565b6000612e6e612c82565b9050612e7a8282612e33565b919050565b600067ffffffffffffffff821115612e9a57612e99612e04565b5b612ea382612d35565b9050602081019050919050565b82818337600083830152505050565b6000612ed2612ecd84612e7f565b612e64565b905082815260208101848484011115612eee57612eed612dff565b5b612ef9848285612eb0565b509392505050565b600082601f830112612f1657612f15612dfa565b5b8135612f26848260208601612ebf565b91505092915050565b600060208284031215612f4557612f44612c8c565b5b600082013567ffffffffffffffff811115612f6357612f62612c91565b5b612f6f84828501612f01565b91505092915050565b60008115159050919050565b612f8d81612f78565b8114612f9857600080fd5b50565b600081359050612faa81612f84565b92915050565b600060208284031215612fc657612fc5612c8c565b5b6000612fd484828501612f9b565b91505092915050565b600067ffffffffffffffff821115612ff857612ff7612e04565b5b602082029050602081019050919050565b600080fd5b600080fd5b6000604082840312156130295761302861300e565b5b6130336040612e64565b9050600061304384828501612db8565b600083015250602061305784828501612db8565b60208301525092915050565b600061307661307184612fdd565b612e64565b9050808382526020820190506040840283018581111561309957613098613009565b5b835b818110156130c257806130ae8882613013565b84526020840193505060408101905061309b565b5050509392505050565b600082601f8301126130e1576130e0612dfa565b5b81356130f1848260208601613063565b91505092915050565b6000602082840312156131105761310f612c8c565b5b600082013567ffffffffffffffff81111561312e5761312d612c91565b5b61313a848285016130cc565b91505092915050565b60006020820190506131586000830184612a56565b92915050565b6000819050919050565b6131718161315e565b811461317c57600080fd5b50565b60008135905061318e81613168565b92915050565b6000602082840312156131aa576131a9612c8c565b5b60006131b88482850161317f565b91505092915050565b7f4f6e6c7920506c61796572000000000000000000000000000000000000000000600082015250565b60006131f7600b83612cfa565b9150613202826131c1565b602082019050919050565b60006020820190508181036000830152613226816131ea565b9050919050565b60008160601b9050919050565b60006132458261322d565b9050919050565b60006132578261323a565b9050919050565b61326f61326a826129b4565b61324c565b82525050565b6000613281828461325e565b60148201915081905092915050565b7f4e487b7100000000000000000000000000000000000000000000000000000000600052601260045260246000fd5b7f4e487b7100000000000000000000000000000000000000000000000000000000600052601160045260246000fd5b60006132f982612a4c565b915061330483612a4c565b92508261331457613313613290565b5b828204905092915050565b600081905092915050565b7f456c206a756761646f7220736520726574697261206465206c6120706172746960008201527f64612c207365206c652064657675656c76656e20000000000000000000000000602082015250565b600061338660348361331f565b91506133918261332a565b603482019050919050565b60006133a782612cef565b6133b1818561331f565b93506133c1818560208601612d0b565b80840191505092915050565b7f2063686970730000000000000000000000000000000000000000000000000000815250565b60006133fe82613379565b915061340a828461339c565b9150613415826133cd565b60068201915081905092915050565b6000819050919050565b61343f61343a82612a4c565b613424565b82525050565b6000613451828461342e565b60208201915081905092915050565b600061346b82612a4c565b915061347683612a4c565b9250817fffffffffffffffffffffffffffffffffffffffffffffffffffffffffffffffff04831182151516156134af576134ae6132bf565b5b828202905092915050565b60006134c582612a4c565b91506134d083612a4c565b92508282019050808211156134e8576134e76132bf565b5b92915050565b7f4e487b7100000000000000000000000000000000000000000000000000000000600052603260045260246000fd5b600061352882612a4c565b91507fffffffffffffffffffffffffffffffffffffffffffffffffffffffffffffffff820361355a576135596132bf565b5b600182019050919050565b60008160f81b9050919050565b600061357d82613565565b9050919050565b600061358f82613572565b9050919050565b6135a76135a282612f78565b613584565b82525050565b60006135b98284613596565b60018201915081905092915050565b7f536f6c6f20736520707565646520646f626c617220636f6e203220636172746160008201527f7320656e206c61206d616e6f0000000000000000000000000000000000000000602082015250565b6000613624602c83612cfa565b915061362f826135c8565b604082019050919050565b6000602082019050818103600083015261365381613617565b9050919050565b7f456c2076616c6f7220616772656761646f206120646f626c617220646562652060008201527f7365722000000000000000000000000000000000000000000000000000000000602082015250565b60006136b660248361331f565b91506136c18261365a565b602482019050919050565b60006136d7826136a9565b91506136e3828461339c565b915081905092915050565b7f456c206a756761646f7220646f626c61206c6120617075657374612061200000815250565b600061371f826136ee565b601e8201915061372f828461339c565b915061373a826133cd565b60068201915081905092915050565b7f456c2076616c6f72206465206c61206170756573746120646562652073657220815250565b600061377a82613749565b60208201915061378a828461339c565b915081905092915050565b60006137a082612a4c565b91506137ab83612a4c565b92508282039050818111156137c3576137c26132bf565b5b92915050565b6000819050919050565b6137e46137df8261315e565b6137c9565b82525050565b60006137f682846137d3565b60208201915081905092915050565b7f4a756761646f7220646563696465206e6f207065646972206d6173206361727460008201527f6173000000000000000000000000000000000000000000000000000000000000602082015250565b600061386160228361331f565b915061386c82613805565b602282019050919050565b600061388282613854565b9150819050919050565b7f45737461646f20496e76616c69646f0000000000000000000000000000000000600082015250565b60006138c2600f83612cfa565b91506138cd8261388c565b602082019050919050565b600060208201905081810360008301526138f1816138b5565b9050919050565b600061390382612a4c565b915061390e83612a4c565b92508261391e5761391d613290565b5b828206905092915050565b7f43616e746964616420646520636869707320696e76616c696461000000000000600082015250565b600061395f601a83612cfa565b915061396a82613929565b602082019050919050565b6000602082019050818103600083015261398e81613952565b9050919050565b7f4170756573746120646520000000000000000000000000000000000000000000815250565b7f20636869707320696e6963696164610000000000000000000000000000000000815250565b60006139ec82613995565b600b820191506139fc828461339c565b9150613a07826139bb565b600f8201915081905092915050565b7f4a7565676f20696e69636961646f000000000000000000000000000000000000600082015250565b6000613a4c600e83612cfa565b9150613a5782613a16565b602082019050919050565b60006020820190508181036000830152613a7b81613a3f565b9050919050565b7f5365207265706172746520000000000000000000000000000000000000000000815250565b7f20616c206a756761646f72000000000000000000000000000000000000000000815250565b6000613ad982613a82565b600b82019150613ae9828461339c565b9150613af482613aa8565b600b8201915081905092915050565b7f456c206a756761646f722067616e6120656c206a7565676f20636f6e20426c6160008201527f636b6a61636b2e205365207061676120616c206a756761646f72000000000000602082015250565b6000613b5f603a8361331f565b9150613b6a82613b03565b603a82019050919050565b6000613b8082613b52565b9150819050919050565b7f456c206465616c65722070657264696f20656c206a7565676f2e20536520706160008201527f676120616c206a756761646f7200000000000000000000000000000000000000602082015250565b6000613be6602d8361331f565b9150613bf182613b8a565b602d82019050919050565b6000613c0782613bd9565b9150819050919050565b7f456c206a756761646f722070657264696f20656c206a7565676f20636f6e2000815250565b7f2070756e746f7300000000000000000000000000000000000000000000000000815250565b6000613c6882613c11565b601f82019150613c78828461339c565b9150613c8382613c37565b60078201915081905092915050565b600081905092915050565b50565b6000613cad600083613c92565b9150613cb882613c9d565b600082019050919050565b6000613cce82613ca0565b9150819050919050565b7f5061676f20646520000000000000000000000000000000000000000000000000815250565b7f2063686970732061204a756761646f7220000000000000000000000000000000815250565b6000613d2f82613cd8565b600882019150613d3f828561339c565b9150613d4a82613cfe565b601182019150613d5a828461339c565b91508190509392505050565b7f4572726f72206465207061676f20646520000000000000000000000000000000815250565b6000613d9782613d66565b601182019150613da7828561339c565b9150613db282613cfe565b601182019150613dc2828461339c565b91508190509392505050565b7f526563657063696f6e2064652000000000000000000000000000000000000000815250565b7f2063686970732064656c206a756761646f722000000000000000000000000000815250565b6000613e2582613dce565b600d82019150613e35828561339c565b9150613e4082613df4565b601382019150613e50828461339c565b91508190509392505050565b7f4572726f7220646520726563657063696f6e2064652000000000000000000000815250565b6000613e8d82613e5c565b601682019150613e9d828561339c565b9150613ea882613df4565b601382019150613eb8828461339c565b91508190509392505050565b7f456c206465616c657220736520717565646120636f6e2070756e74616a652000815250565b6000613ef582613ec4565b601f82019150613f05828461339c565b915081905092915050565b7f456c206a756761646f7220736520717565646120636f6e2070756e74616a6520815250565b6000613f4182613f10565b602082019150613f51828461339c565b915081905092915050565b7f456d706174652e20456c206a756761646f72207265636962652064652076756560008201527f6c74612073752061707565737461000000000000000000000000000000000000602082015250565b6000613fb8602e8361331f565b9150613fc382613f5c565b602e82019050919050565b6000613fd982613fab565b9150819050919050565b7f20616c206465616c657200000000000000000000000000000000000000000000815250565b600061401482613a82565b600b82019150614024828461339c565b915061402f82613fe3565b600a8201915081905092915050565b7f2064652000000000000000000000000000000000000000000000000000000000815250565b6000614070828561339c565b915061407b8261403e565b60048201915061408b828461339c565b91508190509392505050565b60006140a3828661342e565b6020820191506140b3828561325e565b6014820191506140c3828461342e565b60208201915081905094935050505056fea26469706673582212207e820fb12e24c4b515be38a1950ba89b2fa01ed5ddcaa872b58c60af8c8b288a64736f6c63430008100033",
  "linkReferences": {},
  "deployedLinkReferences": {}
}